{
  "contractName": "Voting",
  "abi": [
    {
      "inputs": [],
      "payable": false,
      "stateMutability": "nonpayable",
      "type": "constructor"
    },
    {
      "anonymous": false,
      "inputs": [
        {
          "indexed": false,
          "internalType": "uint256",
          "name": "candidateID",
          "type": "uint256"
        }
      ],
      "name": "AddedCandidate",
      "type": "event"
    },
    {
      "anonymous": false,
      "inputs": [
        {
          "indexed": false,
          "internalType": "uint256",
          "name": "voteID",
          "type": "uint256"
        }
      ],
      "name": "AddedVote",
      "type": "event"
    },
    {
      "anonymous": false,
      "inputs": [
        {
          "indexed": false,
          "internalType": "uint256",
          "name": "voterID",
          "type": "uint256"
        }
      ],
      "name": "AddedVoter",
      "type": "event"
    },
    {
      "anonymous": false,
      "inputs": [
        {
          "indexed": false,
          "internalType": "uint256",
          "name": "voterID",
          "type": "uint256"
        }
      ],
      "name": "Voted",
      "type": "event"
    },
    {
      "constant": true,
      "inputs": [
        {
          "internalType": "string",
          "name": "source",
          "type": "string"
        }
      ],
      "name": "stringToBytes32",
      "outputs": [
        {
          "internalType": "bytes32",
          "name": "result",
          "type": "bytes32"
        }
      ],
      "payable": false,
      "stateMutability": "pure",
      "type": "function"
    },
    {
      "constant": true,
      "inputs": [
        {
          "internalType": "bytes32",
          "name": "_bytes32",
          "type": "bytes32"
        }
      ],
      "name": "bytes32ToString",
      "outputs": [
        {
          "internalType": "string",
          "name": "",
          "type": "string"
        }
      ],
      "payable": false,
      "stateMutability": "pure",
      "type": "function"
    },
    {
      "constant": false,
      "inputs": [
        {
          "internalType": "uint256",
          "name": "vote_id",
          "type": "uint256"
        },
        {
          "internalType": "bytes32",
          "name": "name",
          "type": "bytes32"
        }
      ],
      "name": "addCandidate",
      "outputs": [
        {
          "internalType": "uint256",
          "name": "",
          "type": "uint256"
        }
      ],
      "payable": false,
      "stateMutability": "nonpayable",
      "type": "function"
    },
    {
      "constant": false,
      "inputs": [
        {
          "internalType": "string",
          "name": "topic",
          "type": "string"
        },
        {
          "internalType": "string",
          "name": "content",
          "type": "string"
        },
        {
          "internalType": "uint256",
          "name": "dueTime",
          "type": "uint256"
        },
        {
          "internalType": "bytes32[]",
          "name": "ini_vot",
          "type": "bytes32[]"
        },
        {
          "internalType": "bytes32[]",
          "name": "ini_cand",
          "type": "bytes32[]"
        },
        {
          "internalType": "uint256",
          "name": "upperLimit",
          "type": "uint256"
        }
      ],
      "name": "addVote",
      "outputs": [
        {
          "internalType": "uint256",
          "name": "",
          "type": "uint256"
        }
      ],
      "payable": false,
      "stateMutability": "nonpayable",
      "type": "function"
    },
    {
      "constant": false,
      "inputs": [
        {
          "internalType": "uint256",
          "name": "_vote_id",
          "type": "uint256"
        },
        {
          "internalType": "bytes32",
          "name": "_vid",
          "type": "bytes32"
        }
      ],
      "name": "addVoter",
      "outputs": [
        {
          "internalType": "uint256",
          "name": "",
          "type": "uint256"
        }
      ],
      "payable": false,
      "stateMutability": "nonpayable",
      "type": "function"
    },
    {
      "constant": false,
      "inputs": [
        {
          "internalType": "bytes32",
          "name": "_vid",
          "type": "bytes32"
        },
        {
          "internalType": "address",
          "name": "_vaddr",
          "type": "address"
        }
      ],
      "name": "addNewVoter",
      "outputs": [],
      "payable": false,
      "stateMutability": "nonpayable",
      "type": "function"
    },
    {
      "constant": false,
      "inputs": [
        {
          "internalType": "uint256",
          "name": "_vote_id",
          "type": "uint256"
        },
        {
          "internalType": "uint256[]",
          "name": "_chosen",
          "type": "uint256[]"
        },
        {
          "internalType": "bytes32",
          "name": "_vid",
          "type": "bytes32"
        },
        {
          "internalType": "address",
          "name": "_vaddr",
          "type": "address"
        }
      ],
      "name": "vote",
      "outputs": [],
      "payable": false,
      "stateMutability": "nonpayable",
      "type": "function"
    },
    {
      "constant": true,
      "inputs": [
        {
          "internalType": "uint256",
          "name": "_vote_vid",
          "type": "uint256"
        }
      ],
      "name": "getVote",
      "outputs": [
        {
          "internalType": "string",
          "name": "",
          "type": "string"
        },
        {
          "internalType": "string",
          "name": "",
          "type": "string"
        },
        {
          "internalType": "uint256",
          "name": "",
          "type": "uint256"
        },
        {
          "internalType": "bytes32[]",
          "name": "",
          "type": "bytes32[]"
        },
        {
          "internalType": "bytes32[]",
          "name": "",
          "type": "bytes32[]"
        },
        {
          "internalType": "uint256",
          "name": "",
          "type": "uint256"
        }
      ],
      "payable": false,
      "stateMutability": "view",
      "type": "function"
    },
    {
      "constant": true,
      "inputs": [],
      "name": "getVotingList",
      "outputs": [
        {
          "internalType": "uint256[]",
          "name": "",
          "type": "uint256[]"
        }
      ],
      "payable": false,
      "stateMutability": "view",
      "type": "function"
    },
    {
      "constant": true,
      "inputs": [],
      "name": "getVotingNum",
      "outputs": [
        {
          "internalType": "uint256",
          "name": "",
          "type": "uint256"
        }
      ],
      "payable": false,
      "stateMutability": "view",
      "type": "function"
    },
    {
      "constant": true,
      "inputs": [
        {
          "internalType": "uint256",
          "name": "_vote_vid",
          "type": "uint256"
        }
      ],
      "name": "getVoteResult",
      "outputs": [
        {
          "internalType": "string",
          "name": "",
          "type": "string"
        },
        {
          "internalType": "string",
          "name": "",
          "type": "string"
        },
        {
          "internalType": "bytes32[]",
          "name": "",
          "type": "bytes32[]"
        },
        {
          "internalType": "uint256[]",
          "name": "",
          "type": "uint256[]"
        }
      ],
      "payable": false,
      "stateMutability": "view",
      "type": "function"
    },
    {
      "constant": true,
      "inputs": [
        {
          "internalType": "uint256",
          "name": "_vote_id",
          "type": "uint256"
        }
      ],
      "name": "getBallot",
      "outputs": [
        {
          "internalType": "uint256",
          "name": "",
          "type": "uint256"
        }
      ],
      "payable": false,
      "stateMutability": "view",
      "type": "function"
    },
    {
      "constant": true,
      "inputs": [
        {
          "internalType": "address",
          "name": "_vaddr",
          "type": "address"
        }
      ],
      "name": "getId",
      "outputs": [
        {
          "internalType": "bytes32",
          "name": "",
          "type": "bytes32"
        }
      ],
      "payable": false,
      "stateMutability": "view",
      "type": "function"
    },
    {
      "constant": true,
      "inputs": [
        {
          "internalType": "uint256",
          "name": "_vote_id",
          "type": "uint256"
        },
        {
          "internalType": "bytes32",
          "name": "_vid",
          "type": "bytes32"
        }
      ],
      "name": "ifHeHasRight",
      "outputs": [
        {
          "internalType": "bool",
          "name": "",
          "type": "bool"
        }
      ],
      "payable": false,
      "stateMutability": "view",
      "type": "function"
    },
    {
      "constant": true,
      "inputs": [
        {
          "internalType": "uint256",
          "name": "_vote_id",
          "type": "uint256"
        },
        {
          "internalType": "address",
          "name": "_vaddr",
          "type": "address"
        }
      ],
      "name": "checkVoted",
      "outputs": [
        {
          "internalType": "bool",
          "name": "",
          "type": "bool"
        }
      ],
      "payable": false,
      "stateMutability": "view",
      "type": "function"
    },
    {
      "constant": true,
      "inputs": [
        {
          "internalType": "bytes32",
          "name": "_vid",
          "type": "bytes32"
        }
      ],
      "name": "checkId",
      "outputs": [
        {
          "internalType": "bool",
          "name": "",
          "type": "bool"
        }
      ],
      "payable": false,
      "stateMutability": "view",
      "type": "function"
    },
    {
      "constant": true,
      "inputs": [
        {
          "internalType": "bytes32",
          "name": "_vid",
          "type": "bytes32"
        },
        {
          "internalType": "address",
          "name": "_vaddr",
          "type": "address"
        }
      ],
      "name": "checkIdAddrPair",
      "outputs": [
        {
          "internalType": "bool",
          "name": "",
          "type": "bool"
        }
      ],
      "payable": false,
      "stateMutability": "view",
      "type": "function"
    },
    {
      "constant": true,
      "inputs": [],
      "name": "checkIfManager",
      "outputs": [
        {
          "internalType": "bool",
          "name": "",
          "type": "bool"
        }
      ],
      "payable": false,
      "stateMutability": "view",
      "type": "function"
    },
    {
      "constant": false,
      "inputs": [
        {
          "internalType": "bytes32",
          "name": "_vid",
          "type": "bytes32"
        },
        {
          "internalType": "address",
          "name": "_vaddr",
          "type": "address"
        }
      ],
      "name": "changeId",
      "outputs": [],
      "payable": false,
      "stateMutability": "nonpayable",
      "type": "function"
    },
    {
      "constant": true,
      "inputs": [
        {
          "internalType": "address",
          "name": "_vaddr",
          "type": "address"
        }
      ],
      "name": "checkIfChangeId",
      "outputs": [
        {
          "internalType": "bytes32",
          "name": "",
          "type": "bytes32"
        }
      ],
      "payable": false,
      "stateMutability": "view",
      "type": "function"
    }
  ],
  "bytecode": "0x608060405234801561001057600080fd5b50336000806101000a81548173ffffffffffffffffffffffffffffffffffffffff021916908373ffffffffffffffffffffffffffffffffffffffff160217905550612268806100606000396000f3fe608060405234801561001057600080fd5b506004361061012c5760003560e01c8063706ad99c116100ad578063bfa0fc9311610071578063bfa0fc9314610a64578063cfb5192814610c07578063d225bb0414610cd6578063ed98a6b114610d22578063f9d5ee7514610d6e5761012c565b8063706ad99c1461063b5780639201de551461069357806392d72bf01461073a578063984de1e91461075c578063ad0843b3146107c25761012c565b806341ed88a1116100f457806341ed88a1146103765780634efbb929146103c6578063590b7529146104145780635a55c1f01461043257806365f68c89146105e35761012c565b806301fc59e1146101315780630557b2c7146101775780630bfb705914610263578063233b21ca146102c2578063301c193d14610328575b600080fd5b61015d6004803603602081101561014757600080fd5b8101908080359060200190929190505050610db0565b604051808215151515815260200191505060405180910390f35b6102616004803603608081101561018d57600080fd5b8101908080359060200190929190803590602001906401000000008111156101b457600080fd5b8201836020820111156101c657600080fd5b803590602001918460208302840111640100000000831117156101e857600080fd5b919080806020026020016040519081016040528093929190818152602001838360200280828437600081840152601f19601f82011690508083019250505050505050919291929080359060200190929190803573ffffffffffffffffffffffffffffffffffffffff169060200190929190505050610e09565b005b61026b610f37565b6040518080602001828103825283818151815260200191508051906020019060200280838360005b838110156102ae578082015181840152602081019050610293565b505050509050019250505060405180910390f35b61030e600480360360408110156102d857600080fd5b8101908080359060200190929190803573ffffffffffffffffffffffffffffffffffffffff169060200190929190505050610fc7565b604051808215151515815260200191505060405180910390f35b6103746004803603604081101561033e57600080fd5b8101908080359060200190929190803573ffffffffffffffffffffffffffffffffffffffff169060200190929190505050611073565b005b6103ac6004803603604081101561038c57600080fd5b81019080803590602001909291908035906020019092919050505061118b565b604051808215151515815260200191505060405180910390f35b610412600480360360408110156103dc57600080fd5b8101908080359060200190929190803573ffffffffffffffffffffffffffffffffffffffff169060200190929190505050611202565b005b61041c611288565b6040518082815260200191505060405180910390f35b61045e6004803603602081101561044857600080fd5b8101908080359060200190929190505050611292565b604051808060200180602001878152602001806020018060200186815260200185810385528b818151815260200191508051906020019080838360005b838110156104b657808201518184015260208101905061049b565b50505050905090810190601f1680156104e35780820380516001836020036101000a031916815260200191505b5085810384528a818151815260200191508051906020019080838360005b8381101561051c578082015181840152602081019050610501565b50505050905090810190601f1680156105495780820380516001836020036101000a031916815260200191505b50858103835288818151815260200191508051906020019060200280838360005b8381101561058557808201518184015260208101905061056a565b50505050905001858103825287818151815260200191508051906020019060200280838360005b838110156105c75780820151818401526020810190506105ac565b505050509050019a505050505050505050505060405180910390f35b610625600480360360208110156105f957600080fd5b81019080803573ffffffffffffffffffffffffffffffffffffffff1690602001909291905050506114f5565b6040518082815260200191505060405180910390f35b61067d6004803603602081101561065157600080fd5b81019080803573ffffffffffffffffffffffffffffffffffffffff16906020019092919050505061153e565b6040518082815260200191505060405180910390f35b6106bf600480360360208110156106a957600080fd5b8101908080359060200190929190505050611587565b6040518080602001828103825283818151815260200191508051906020019080838360005b838110156106ff5780820151818401526020810190506106e4565b50505050905090810190601f16801561072c5780820380516001836020036101000a031916815260200191505b509250505060405180910390f35b6107426116e4565b604051808215151515815260200191505060405180910390f35b6107a86004803603604081101561077257600080fd5b8101908080359060200190929190803573ffffffffffffffffffffffffffffffffffffffff16906020019092919050505061174c565b604051808215151515815260200191505060405180910390f35b610a4e600480360360c08110156107d857600080fd5b81019080803590602001906401000000008111156107f557600080fd5b82018360208201111561080757600080fd5b8035906020019184600183028401116401000000008311171561082957600080fd5b91908080601f016020809104026020016040519081016040528093929190818152602001838380828437600081840152601f19601f8201169050808301925050505050505091929192908035906020019064010000000081111561088c57600080fd5b82018360208201111561089e57600080fd5b803590602001918460018302840111640100000000831117156108c057600080fd5b91908080601f016020809104026020016040519081016040528093929190818152602001838380828437600081840152601f19601f820116905080830192505050505050509192919290803590602001909291908035906020019064010000000081111561092d57600080fd5b82018360208201111561093f57600080fd5b8035906020019184602083028401116401000000008311171561096157600080fd5b919080806020026020016040519081016040528093929190818152602001838360200280828437600081840152601f19601f820116905080830192505050505050509192919290803590602001906401000000008111156109c157600080fd5b8201836020820111156109d357600080fd5b803590602001918460208302840111640100000000831117156109f557600080fd5b919080806020026020016040519081016040528093929190818152602001838360200280828437600081840152601f19601f82011690508083019250505050505050919291929080359060200190929190505050611812565b6040518082815260200191505060405180910390f35b610a9060048036036020811015610a7a57600080fd5b8101908080359060200190929190505050611a7b565b6040518080602001806020018060200180602001858103855289818151815260200191508051906020019080838360005b83811015610adc578082015181840152602081019050610ac1565b50505050905090810190601f168015610b095780820380516001836020036101000a031916815260200191505b50858103845288818151815260200191508051906020019080838360005b83811015610b42578082015181840152602081019050610b27565b50505050905090810190601f168015610b6f5780820380516001836020036101000a031916815260200191505b50858103835287818151815260200191508051906020019060200280838360005b83811015610bab578082015181840152602081019050610b90565b50505050905001858103825286818151815260200191508051906020019060200280838360005b83811015610bed578082015181840152602081019050610bd2565b505050509050019850505050505050505060405180910390f35b610cc060048036036020811015610c1d57600080fd5b8101908080359060200190640100000000811115610c3a57600080fd5b820183602082011115610c4c57600080fd5b80359060200191846001830284011164010000000083111715610c6e57600080fd5b91908080601f016020809104026020016040519081016040528093929190818152602001838380828437600081840152601f19601f820116905080830192505050505050509192919290505050611cd9565b6040518082815260200191505060405180910390f35b610d0c60048036036040811015610cec57600080fd5b810190808035906020019092919080359060200190929190505050611d04565b6040518082815260200191505060405180910390f35b610d5860048036036040811015610d3857600080fd5b810190808035906020019092919080359060200190929190505050611e87565b6040518082815260200191505060405180910390f35b610d9a60048036036020811015610d8457600080fd5b8101908080359060200190929190505050611fd7565b6040518082815260200191505060405180910390f35b600080600554905060008090505b81811015610dfd578360038281548110610dd457fe5b90600052602060002001541415610df057600192505050610e04565b8080600101915050610dbe565b5060009150505b919050565b6000600160008681526020019081526020016000209050600081600c0160008581526020019081526020016000209050600082600901905060008651905060008090505b81811015610e9957600185600d0160008a8481518110610e6957fe5b60200260200101518152602001908152602001600020600082825401925050819055508080600101915050610e4d565b5082600101889080600181540180825580915050906001820390600052602060002001600090919290919091505550818590806001815401808255809150509060018203906000526020600020016000909192909190916101000a81548173ffffffffffffffffffffffffffffffffffffffff021916908373ffffffffffffffffffffffffffffffffffffffff160217905550505050505050505050565b606060006004549050606081604051908082528060200260200182016040528015610f715781602001602082028038833980820191505090505b50905060008090505b82811015610fbe576001600082815260200190815260200160002060000154828281518110610fa557fe5b6020026020010181815250508080600101915050610f7a565b50809250505090565b600080600554905060008090505b81811015611066578460038281548110610feb57fe5b906000526020600020015414156110595784600260008673ffffffffffffffffffffffffffffffffffffffff1673ffffffffffffffffffffffffffffffffffffffff16815260200190815260200160002054141561104e5760019250505061106d565b60009250505061106d565b8080600101915050610fd5565b5060019150505b92915050565b6000600260008373ffffffffffffffffffffffffffffffffffffffff1673ffffffffffffffffffffffffffffffffffffffff1681526020019081526020016000205490506000600554905060008090505b818110156111405782600382815481106110da57fe5b9060005260206000200154141561113357600381815481106110f857fe5b906000526020600020016000905560038590806001815401808255809150509060018203906000526020600020016000909192909190915055505b80806001019150506110c4565b5083600260008573ffffffffffffffffffffffffffffffffffffffff1673ffffffffffffffffffffffffffffffffffffffff1681526020019081526020016000208190555050505050565b60008060016000858152602001908152602001600020905060008160050154905060008090505b818110156111f457848360070182815481106111ca57fe5b906000526020600020015414156111e757600193505050506111fc565b80806001019150506111b2565b506000925050505b92915050565b81600260008373ffffffffffffffffffffffffffffffffffffffff1673ffffffffffffffffffffffffffffffffffffffff1681526020019081526020016000208190555060038290806001815401808255809150509060018203906000526020600020016000909192909190915055506005600081548092919060010191905055505050565b6000600454905090565b60608060006060806000806001600089815260200190815260200160002090506000816004015490506060816040519080825280602002602001820160405280156112ec5781602001602082028038833980820191505090505b50905060008090505b8281101561133b5783600a0160008281526020019081526020016000206001015482828151811061132257fe5b60200260200101818152505080806001019150506112f5565b508260010183600201846003015483866007018760060154858054600181600116156101000203166002900480601f0160208091040260200160405190810160405280929190818152602001828054600181600116156101000203166002900480156113e85780601f106113bd576101008083540402835291602001916113e8565b820191906000526020600020905b8154815290600101906020018083116113cb57829003601f168201915b50505050509550848054600181600116156101000203166002900480601f0160208091040260200160405190810160405280929190818152602001828054600181600116156101000203166002900480156114845780601f1061145957610100808354040283529160200191611484565b820191906000526020600020905b81548152906001019060200180831161146757829003601f168201915b50505050509450818054806020026020016040519081016040528092919081815260200182805480156114d657602002820191906000526020600020905b8154815260200190600101908083116114c2575b5050505050915098509850985098509850985050505091939550919395565b6000600260008373ffffffffffffffffffffffffffffffffffffffff1673ffffffffffffffffffffffffffffffffffffffff168152602001908152602001600020549050919050565b6000600260008373ffffffffffffffffffffffffffffffffffffffff1673ffffffffffffffffffffffffffffffffffffffff168152602001908152602001600020549050919050565b606060008090505b60208160ff161080156115da5750600060f81b838260ff16602081106115b157fe5b1a60f81b7effffffffffffffffffffffffffffffffffffffffffffffffffffffffffffff191614155b156115ec57808060010191505061158f565b60608160ff166040519080825280601f01601f1916602001820160405280156116245781602001600182028038833980820191505090505b509050600091505b60208260ff161080156116775750600060f81b848360ff166020811061164e57fe5b1a60f81b7effffffffffffffffffffffffffffffffffffffffffffffffffffffffffffff191614155b156116da57838260ff166020811061168b57fe5b1a60f81b818360ff168151811061169e57fe5b60200101907effffffffffffffffffffffffffffffffffffffffffffffffffffffffffffff1916908160001a905350818060010192505061162c565b8092505050919050565b60008060009054906101000a900473ffffffffffffffffffffffffffffffffffffffff1673ffffffffffffffffffffffffffffffffffffffff163373ffffffffffffffffffffffffffffffffffffffff1614156117445760019050611749565b600090505b90565b60008060016000858152602001908152602001600020905060008160090180549050905060008090505b81811015611804578473ffffffffffffffffffffffffffffffffffffffff168360090182815481106117a457fe5b9060005260206000200160009054906101000a900473ffffffffffffffffffffffffffffffffffffffff1673ffffffffffffffffffffffffffffffffffffffff1614156117f7576001935050505061180c565b8080600101915050611776565b506000925050505b92915050565b60008060009054906101000a900473ffffffffffffffffffffffffffffffffffffffff1673ffffffffffffffffffffffffffffffffffffffff163373ffffffffffffffffffffffffffffffffffffffff161461186d57600080fd5b6000600460008154809291906001019190505590506060859050606085905060606040518061014001604052808581526020018c81526020018b81526020018a81526020016000815260200160008152602001878152602001848152602001838152602001828152506001600086815260200190815260200160002060008201518160000155602082015181600101908051906020019061190f929190612002565b50604082015181600201908051906020019061192c929190612002565b50606082015181600301556080820151816004015560a0820151816005015560c0820151816006015560e0820151816007019080519060200190611971929190612082565b5061010082015181600801908051906020019061198f929190612082565b506101208201518160090190805190602001906119ad9291906120cf565b5090505060008251905060008090505b818110156119f0576119e2868583815181106119d557fe5b6020026020010151611d04565b5080806001019150506119bd565b5060008451905060008090505b81811015611a3057611a2287878381518110611a1557fe5b6020026020010151611e87565b5080806001019150506119fd565b507fe79beac2ee86ffcc8364eb577eb6b867ee9e36b53948e38dccfe28456721d43f866040518082815260200191505060405180910390a18596505050505050509695505050505050565b6060806060806000600160008781526020019081526020016000209050600081600401549050606081604051908082528060200260200182016040528015611ad25781602001602082028038833980820191505090505b509050606082604051908082528060200260200182016040528015611b065781602001602082028038833980820191505090505b50905060008090505b83811015611b835784600a01600082815260200190815260200160002060010154838281518110611b3c57fe5b60200260200101818152505084600d01600082815260200190815260200160002054828281518110611b6a57fe5b6020026020010181815250508080600101915050611b0f565b5083600101846002018383838054600181600116156101000203166002900480601f016020809104026020016040519081016040528092919081815260200182805460018160011615610100020316600290048015611c235780601f10611bf857610100808354040283529160200191611c23565b820191906000526020600020905b815481529060010190602001808311611c0657829003601f168201915b50505050509350828054600181600116156101000203166002900480601f016020809104026020016040519081016040528092919081815260200182805460018160011615610100020316600290048015611cbf5780601f10611c9457610100808354040283529160200191611cbf565b820191906000526020600020905b815481529060010190602001808311611ca257829003601f168201915b505050505092509750975097509750505050509193509193565b60006060829050600081511415611cf6576000801b915050611cff565b60208301519150505b919050565b60008060009054906101000a900473ffffffffffffffffffffffffffffffffffffffff1673ffffffffffffffffffffffffffffffffffffffff163373ffffffffffffffffffffffffffffffffffffffff1614611d5f57600080fd5b60008290506000600160008681526020019081526020016000209050600081600401600081548092919060010191905055905060405180606001604052808281526020018481526020016001151581525082600a016000838152602001908152602001600020600082015181600001556020820151816001015560408201518160020160006101000a81548160ff0219169083151502179055509050508082600b01600085815260200190815260200160002081905550816008018390806001815401808255809150509060018203906000526020600020016000909192909190915055507fec542c373a064661ffef02d633752debf28f3e6c9f253680822d9ccf8b47aec6816040518082815260200191505060405180910390a180935050505092915050565b60008060009054906101000a900473ffffffffffffffffffffffffffffffffffffffff1673ffffffffffffffffffffffffffffffffffffffff163373ffffffffffffffffffffffffffffffffffffffff1614611ee257600080fd5b60006001600085815260200190815260200160002090506000816005016000815480929190600101919050559050606060405180604001604052808681526020018281525083600c016000878152602001908152602001600020600082015181600001556020820151816001019080519060200190611f62929190612159565b50905050826007018590806001815401808255809150509060018203906000526020600020016000909192909190915055507f68b3ea8039ba0bcaf43bd4caaa888dc8d81b77f70304ad5f111a4b646a4e2291826040518082815260200191505060405180910390a181935050505092915050565b6000806001600084815260200190815260200160002090506000816006015490508092505050919050565b828054600181600116156101000203166002900490600052602060002090601f016020900481019282601f1061204357805160ff1916838001178555612071565b82800160010185558215612071579182015b82811115612070578251825591602001919060010190612055565b5b50905061207e91906121a6565b5090565b8280548282559060005260206000209081019282156120be579160200282015b828111156120bd5782518255916020019190600101906120a2565b5b5090506120cb91906121cb565b5090565b828054828255906000526020600020908101928215612148579160200282015b828111156121475782518260006101000a81548173ffffffffffffffffffffffffffffffffffffffff021916908373ffffffffffffffffffffffffffffffffffffffff160217905550916020019190600101906120ef565b5b50905061215591906121f0565b5090565b828054828255906000526020600020908101928215612195579160200282015b82811115612194578251825591602001919060010190612179565b5b5090506121a291906121a6565b5090565b6121c891905b808211156121c45760008160009055506001016121ac565b5090565b90565b6121ed91905b808211156121e95760008160009055506001016121d1565b5090565b90565b61223091905b8082111561222c57600081816101000a81549073ffffffffffffffffffffffffffffffffffffffff0219169055506001016121f6565b5090565b9056fea265627a7a72315820cf8ae6886abc184c0c5c7c9685882ffa52ca6af63f659ed9355110e66031f75464736f6c63430005100032",
  "source": "pragma solidity >=0.4.21 <0.6.0;\r\n\r\ncontract Voting{\r\n    //events\r\n    event AddedVote(uint voteID);\r\n    event AddedCandidate(uint candidateID);\r\n    event AddedVoter(uint voterID);\r\n    event Voted(uint voterID);\r\n\r\n    //constructor & modifier\r\n    address owner;\r\n    constructor() public{\r\n        owner=msg.sender;\r\n    }\r\n\r\n    modifier onlyOwner {\r\n        require(msg.sender == owner);\r\n        _;\r\n    }\r\n\r\n    //structs\r\n    struct Voter{\r\n        bytes32 vid;\r\n        //address vaddr;\r\n        uint[] allowed_votes;\r\n    }\r\n\r\n    struct Candidate{\r\n        uint cid;\r\n        bytes32 name;\r\n        bool doesExist; \r\n    }\r\n\r\n    struct Vote{\r\n        uint vote_id;\r\n        string topic;\r\n        string content;\r\n        uint dueTime;\r\n        uint num_candidates;\r\n        uint num_voters;\r\n        uint upperLimit;\r\n        bytes32[] allowed_voters;\r\n        bytes32[] participating_candidates;\r\n        address[] voted_addr;\r\n        mapping (uint => Candidate) candidates;\r\n        mapping (bytes32 => uint) cname_to_id;\r\n        mapping (bytes32 => Voter) voters;\r\n        mapping (uint => uint) ballot;\r\n    }\r\n\r\n    //declaration\r\n    //Vote[] votes;\r\n    mapping (uint => Vote) votes;\r\n    mapping (address => bytes32) all_voters_map;\r\n    bytes32[] all_voters;\r\n    uint num_votes;\r\n    uint num_all_voters;\r\n    \r\n    \r\n\r\n    //type transfer functions\r\n    function stringToBytes32(string memory source) public pure returns (bytes32 result) {\r\n        bytes memory tempEmptyStringTest = bytes(source);\r\n        if (tempEmptyStringTest.length == 0) {\r\n            return 0x0;\r\n        }\r\n        assembly {\r\n            result := mload(add(source, 32))\r\n        }\r\n    }\r\n\r\n    function bytes32ToString(bytes32 _bytes32) public pure returns (string memory) {\r\n        uint8 i = 0;\r\n        while(i < 32 && _bytes32[i] != 0) {\r\n            i++;\r\n        }\r\n        bytes memory bytesArray = new bytes(i);\r\n        for (i = 0; i < 32 && _bytes32[i] != 0; i++) {\r\n            bytesArray[i] = _bytes32[i];\r\n        }\r\n        return string(bytesArray);\r\n    }\r\n\r\n    //add functions\r\n    function addCandidate(uint vote_id, bytes32 name) onlyOwner public returns(uint) {\r\n        bytes32 nb = name;\r\n        Vote storage cur_vote = votes[vote_id];\r\n        // candidateID is the return variable\r\n        uint candidateID = cur_vote.num_candidates++;\r\n        // Create new Candidate Struct with name and saves it to storage.\r\n        cur_vote.candidates[candidateID] = Candidate(candidateID,nb,true);\r\n        cur_vote.cname_to_id[nb] = candidateID;\r\n        cur_vote.participating_candidates.push(nb);\r\n        emit AddedCandidate(candidateID);\r\n        return (candidateID);\r\n    }\r\n\r\n    function addVote(string memory topic, string memory content,uint dueTime,bytes32[] memory ini_vot,bytes32[] memory ini_cand, uint upperLimit) onlyOwner public returns(uint){\r\n        uint voteID = num_votes++;\r\n        //uint[] memory vot;\r\n        bytes32[] memory vot = ini_vot;    \r\n        bytes32[] memory cand = ini_cand;\r\n        address[] memory va;\r\n        /*uint l = ini_cand.length;\r\n        for (uint i = 0; i < l; i++) {\r\n            cand[i] = ini_cand[i];\r\n        }*/\r\n        \r\n        votes[voteID] = Vote(voteID,topic,content,dueTime,0,0,upperLimit,vot,cand,va);\r\n        uint len = cand.length;\r\n        for (uint i = 0; i < len; i++) {\r\n            //string memory _cname = bytes32ToString(cand[i]);\r\n            //addCandidate(voteID,_cname);\r\n            addCandidate(voteID,cand[i]);\r\n        }\r\n        uint len2 = vot.length;\r\n        for (uint i = 0; i < len2; i++) {\r\n            //string memory _cname = bytes32ToString(cand[i]);\r\n            //addCandidate(voteID,_cname);\r\n            addVoter(voteID,vot[i]);\r\n        }\r\n        emit AddedVote(voteID);\r\n        return (voteID); \r\n    }\r\n\r\n    function addVoter(uint _vote_id, bytes32 _vid) onlyOwner public returns(uint){\r\n        Vote storage cur_vote = votes[_vote_id];\r\n        uint voterID = cur_vote.num_voters++;\r\n        uint[] memory allv;\r\n        cur_vote.voters[_vid] = Voter(_vid,allv);\r\n        cur_vote.allowed_voters.push(_vid);    \r\n        //cur_vote.voters[_vid] \r\n        \r\n        emit AddedVoter(voterID);\r\n        return(voterID);    \r\n    }\r\n\r\n    function addNewVoter(bytes32 _vid, address _vaddr) public{\r\n        all_voters_map[_vaddr] = _vid;\r\n        all_voters.push(_vid);\r\n        num_all_voters++;\r\n    }\r\n\r\n    //vote function\r\n    function vote(uint _vote_id,uint[] memory _chosen, bytes32 _vid, address _vaddr) public{\r\n        Vote storage cur_vote = votes[_vote_id];\r\n        Voter storage cur_voter = cur_vote.voters[_vid];\r\n        address[] storage va = cur_vote.voted_addr;\r\n        uint len = _chosen.length;\r\n        for (uint i = 0; i < len; i++) {\r\n            cur_vote.ballot[_chosen[i]]+=1;\r\n        }\r\n        cur_voter.allowed_votes.push(_vote_id);\r\n        va.push(_vaddr);\r\n        \r\n    }\r\n\r\n    //get methods\r\n    function getVote(uint _vote_vid) view public returns(string memory, string memory, uint,bytes32[] memory,bytes32[] memory,uint){\r\n        Vote storage cur_vote = votes[_vote_vid];\r\n        uint nc = cur_vote.num_candidates;\r\n        bytes32[] memory cb = new bytes32[](nc);\r\n        \r\n        for (uint i = 0; i < nc; i++) {\r\n            cb[i]=cur_vote.candidates[i].name;\r\n        }\r\n\r\n        return(cur_vote.topic,cur_vote.content,cur_vote.dueTime,cb,cur_vote.allowed_voters ,cur_vote.upperLimit);\r\n    }\r\n\r\n    function getVotingList() view public returns(uint[] memory){\r\n        uint numVotes = num_votes;\r\n        uint[] memory cur_vid = new uint[](numVotes);\r\n        for (uint i = 0; i < numVotes; i++) {\r\n            //Vote storage cur_vote = votes[i];\r\n            //uint id = cur_vote.vote_id;\r\n            cur_vid[i]=votes[i].vote_id;\r\n        }\r\n        return(cur_vid);\r\n    }\r\n\r\n    function getVotingNum() view public returns(uint){\r\n        return(num_votes);\r\n    }\r\n\r\n    function getVoteResult(uint _vote_vid) view public returns(string memory,string memory,bytes32[] memory,uint[] memory){\r\n        Vote storage cur_vote = votes[_vote_vid];\r\n        uint nc = cur_vote.num_candidates;\r\n        bytes32[] memory cb = new bytes32[](nc);\r\n        uint[] memory bal = new uint[](nc);\r\n        for (uint i = 0; i < nc; i++) {\r\n            cb[i]=cur_vote.candidates[i].name;\r\n            bal[i] = cur_vote.ballot[i];\r\n        }\r\n        \r\n        return(cur_vote.topic,cur_vote.content,cb,bal);\r\n        \r\n    }\r\n\r\n    function getBallot(uint _vote_id) view public returns(uint){\r\n        Vote storage cur_vote = votes[_vote_id];\r\n        uint nb = cur_vote.upperLimit;\r\n        return(nb);        \r\n    }\r\n\r\n    function getId(address _vaddr) view public returns(bytes32){\r\n        return(all_voters_map[_vaddr]);\r\n    }\r\n\r\n    //qualification    \r\n    function ifHeHasRight(uint _vote_id, bytes32 _vid) view public returns(bool){\r\n        Vote storage cur_vote = votes[_vote_id];\r\n        uint n = cur_vote.num_voters;\r\n        //bool rv = false;\r\n        for (uint i = 0; i < n; i++) {\r\n            if (cur_vote.allowed_voters[i] == _vid){\r\n                return true;\r\n            }\r\n        }\r\n        return false;\r\n\r\n    }\r\n\r\n    function checkVoted(uint _vote_id,address _vaddr) view public returns(bool){\r\n        Vote storage cur_vote = votes[_vote_id];\r\n        uint len2 = cur_vote.voted_addr.length;\r\n        for (uint i = 0; i < len2; i++) {\r\n            if (cur_vote.voted_addr[i] == _vaddr){\r\n                return true;\r\n            }\r\n        }        \r\n        return false;\r\n\r\n    }\r\n\r\n    function checkId(bytes32 _vid) view public returns(bool){\r\n        uint len = num_all_voters;\r\n        for (uint i = 0; i < len; i++) {\r\n            if (all_voters[i] == _vid){\r\n                return true;\r\n            }\r\n        }\r\n        return false;        \r\n    }\r\n\r\n    function checkIdAddrPair(bytes32 _vid, address _vaddr) view public returns(bool){\r\n        uint len = num_all_voters;\r\n        for (uint i = 0; i < len; i++) {\r\n            if (all_voters[i] == _vid){\r\n                if(all_voters_map[_vaddr] == _vid){\r\n                    return true;\r\n                }\r\n                else{\r\n                    return false;                   \r\n                }\r\n            }\r\n        }\r\n        return true;         \r\n    }\r\n\r\n    function checkIfManager() view public returns(bool){\r\n        if (msg.sender == owner){\r\n            return true;\r\n        }\r\n        return false;\r\n    }\r\n\r\n    //change ID\r\n    function changeId(bytes32 _vid, address _vaddr) public {\r\n        bytes32 old_vid = all_voters_map[_vaddr];\r\n        uint len = num_all_voters;\r\n        for (uint i = 0; i < len; i++) {\r\n            if (all_voters[i] == old_vid){\r\n                delete all_voters[i];\r\n                all_voters.push(_vid); \r\n            }\r\n        }       \r\n        all_voters_map[_vaddr] = _vid;\r\n  \r\n    }\r\n\r\n    function checkIfChangeId(address _vaddr) view public returns(bytes32){\r\n        return(all_voters_map[_vaddr]);\r\n    }\r\n\r\n\r\n    \r\n}",
  "sourcePath": "D:/NTUEE/third_grade//final/voting/contracts/Voting.sol",
  "compiler": {
    "name": "solc",
    "version": "0.5.16+commit.9c3226ce.Emscripten.clang"
  },
  "schemaVersion": "3.4.1",
  "updatedAt": "2021-06-30T04:44:16.786Z",
  "networkType": "ethereum",
  "devdoc": {
    "methods": {}
  },
  "userdoc": {
    "methods": {}
  }
}