{
  "contractName": "Voting",
  "abi": [
    {
      "inputs": [],
      "payable": false,
      "stateMutability": "nonpayable",
      "type": "constructor"
    },
    {
      "anonymous": false,
      "inputs": [
        {
          "indexed": false,
          "internalType": "uint256",
          "name": "candidateID",
          "type": "uint256"
        }
      ],
      "name": "AddedCandidate",
      "type": "event"
    },
    {
      "anonymous": false,
      "inputs": [
        {
          "indexed": false,
          "internalType": "uint256",
          "name": "voteID",
          "type": "uint256"
        }
      ],
      "name": "AddedVote",
      "type": "event"
    },
    {
      "anonymous": false,
      "inputs": [
        {
          "indexed": false,
          "internalType": "uint256",
          "name": "voterID",
          "type": "uint256"
        }
      ],
      "name": "AddedVoter",
      "type": "event"
    },
    {
      "anonymous": false,
      "inputs": [
        {
          "indexed": false,
          "internalType": "uint256",
          "name": "voterID",
          "type": "uint256"
        }
      ],
      "name": "Voted",
      "type": "event"
    },
    {
      "constant": true,
      "inputs": [
        {
          "internalType": "string",
          "name": "source",
          "type": "string"
        }
      ],
      "name": "stringToBytes32",
      "outputs": [
        {
          "internalType": "bytes32",
          "name": "result",
          "type": "bytes32"
        }
      ],
      "payable": false,
      "stateMutability": "pure",
      "type": "function"
    },
    {
      "constant": true,
      "inputs": [
        {
          "internalType": "bytes32",
          "name": "_bytes32",
          "type": "bytes32"
        }
      ],
      "name": "bytes32ToString",
      "outputs": [
        {
          "internalType": "string",
          "name": "",
          "type": "string"
        }
      ],
      "payable": false,
      "stateMutability": "pure",
      "type": "function"
    },
    {
      "constant": false,
      "inputs": [
        {
          "internalType": "uint256",
          "name": "vote_id",
          "type": "uint256"
        },
        {
          "internalType": "bytes32",
          "name": "name",
          "type": "bytes32"
        }
      ],
      "name": "addCandidate",
      "outputs": [
        {
          "internalType": "uint256",
          "name": "",
          "type": "uint256"
        }
      ],
      "payable": false,
      "stateMutability": "nonpayable",
      "type": "function"
    },
    {
      "constant": false,
      "inputs": [
        {
          "internalType": "string",
          "name": "topic",
          "type": "string"
        },
        {
          "internalType": "string",
          "name": "content",
          "type": "string"
        },
        {
          "internalType": "uint256",
          "name": "dueTime",
          "type": "uint256"
        },
        {
          "internalType": "bytes32[]",
          "name": "ini_vot",
          "type": "bytes32[]"
        },
        {
          "internalType": "bytes32[]",
          "name": "ini_cand",
          "type": "bytes32[]"
        },
        {
          "internalType": "uint256",
          "name": "upperLimit",
          "type": "uint256"
        }
      ],
      "name": "addVote",
      "outputs": [
        {
          "internalType": "uint256",
          "name": "",
          "type": "uint256"
        }
      ],
      "payable": false,
      "stateMutability": "nonpayable",
      "type": "function"
    },
    {
      "constant": false,
      "inputs": [
        {
          "internalType": "uint256",
          "name": "_vote_id",
          "type": "uint256"
        },
        {
          "internalType": "bytes32",
          "name": "_vid",
          "type": "bytes32"
        }
      ],
      "name": "addVoter",
      "outputs": [
        {
          "internalType": "uint256",
          "name": "",
          "type": "uint256"
        }
      ],
      "payable": false,
      "stateMutability": "nonpayable",
      "type": "function"
    },
    {
      "constant": false,
      "inputs": [
        {
          "internalType": "bytes32",
          "name": "_vid",
          "type": "bytes32"
        },
        {
          "internalType": "address",
          "name": "_vaddr",
          "type": "address"
        }
      ],
      "name": "addNewVoter",
      "outputs": [],
      "payable": false,
      "stateMutability": "nonpayable",
      "type": "function"
    },
    {
      "constant": false,
      "inputs": [
        {
          "internalType": "uint256",
          "name": "_vote_id",
          "type": "uint256"
        },
        {
          "internalType": "uint256[]",
          "name": "_chosen",
          "type": "uint256[]"
        },
        {
          "internalType": "bytes32",
          "name": "_vid",
          "type": "bytes32"
        }
      ],
      "name": "vote",
      "outputs": [],
      "payable": false,
      "stateMutability": "nonpayable",
      "type": "function"
    },
    {
      "constant": true,
      "inputs": [
        {
          "internalType": "uint256",
          "name": "_vote_vid",
          "type": "uint256"
        }
      ],
      "name": "getVote",
      "outputs": [
        {
          "internalType": "string",
          "name": "",
          "type": "string"
        },
        {
          "internalType": "string",
          "name": "",
          "type": "string"
        },
        {
          "internalType": "uint256",
          "name": "",
          "type": "uint256"
        },
        {
          "internalType": "bytes32[]",
          "name": "",
          "type": "bytes32[]"
        },
        {
          "internalType": "bytes32[]",
          "name": "",
          "type": "bytes32[]"
        },
        {
          "internalType": "uint256",
          "name": "",
          "type": "uint256"
        }
      ],
      "payable": false,
      "stateMutability": "view",
      "type": "function"
    },
    {
      "constant": true,
      "inputs": [],
      "name": "getVotingList",
      "outputs": [
        {
          "internalType": "uint256[]",
          "name": "",
          "type": "uint256[]"
        }
      ],
      "payable": false,
      "stateMutability": "view",
      "type": "function"
    },
    {
      "constant": true,
      "inputs": [],
      "name": "getVotingNum",
      "outputs": [
        {
          "internalType": "uint256",
          "name": "",
          "type": "uint256"
        }
      ],
      "payable": false,
      "stateMutability": "view",
      "type": "function"
    },
    {
      "constant": true,
      "inputs": [
        {
          "internalType": "uint256",
          "name": "_vote_vid",
          "type": "uint256"
        }
      ],
      "name": "getVoteResult",
      "outputs": [
        {
          "internalType": "string",
          "name": "",
          "type": "string"
        },
        {
          "internalType": "string",
          "name": "",
          "type": "string"
        },
        {
          "internalType": "bytes32[]",
          "name": "",
          "type": "bytes32[]"
        },
        {
          "internalType": "uint256[]",
          "name": "",
          "type": "uint256[]"
        }
      ],
      "payable": false,
      "stateMutability": "view",
      "type": "function"
    },
    {
      "constant": true,
      "inputs": [
        {
          "internalType": "uint256",
          "name": "_vote_id",
          "type": "uint256"
        }
      ],
      "name": "getBallot",
      "outputs": [
        {
          "internalType": "uint256",
          "name": "",
          "type": "uint256"
        }
      ],
      "payable": false,
      "stateMutability": "view",
      "type": "function"
    },
    {
      "constant": true,
      "inputs": [
        {
          "internalType": "address",
          "name": "_vaddr",
          "type": "address"
        }
      ],
      "name": "getId",
      "outputs": [
        {
          "internalType": "bytes32",
          "name": "",
          "type": "bytes32"
        }
      ],
      "payable": false,
      "stateMutability": "view",
      "type": "function"
    },
    {
      "constant": true,
      "inputs": [
        {
          "internalType": "uint256",
          "name": "_vote_id",
          "type": "uint256"
        },
        {
          "internalType": "bytes32",
          "name": "_vid",
          "type": "bytes32"
        }
      ],
      "name": "ifHeHasRight",
      "outputs": [
        {
          "internalType": "bool",
          "name": "",
          "type": "bool"
        }
      ],
      "payable": false,
      "stateMutability": "view",
      "type": "function"
    },
    {
      "constant": true,
      "inputs": [
        {
          "internalType": "uint256",
          "name": "_vote_id",
          "type": "uint256"
        },
        {
          "internalType": "bytes32",
          "name": "_vid",
          "type": "bytes32"
        }
      ],
      "name": "checkVoted",
      "outputs": [
        {
          "internalType": "bool",
          "name": "",
          "type": "bool"
        }
      ],
      "payable": false,
      "stateMutability": "view",
      "type": "function"
    },
    {
      "constant": true,
      "inputs": [
        {
          "internalType": "bytes32",
          "name": "_vid",
          "type": "bytes32"
        }
      ],
      "name": "checkId",
      "outputs": [
        {
          "internalType": "bool",
          "name": "",
          "type": "bool"
        }
      ],
      "payable": false,
      "stateMutability": "view",
      "type": "function"
    },
    {
      "constant": true,
      "inputs": [
        {
          "internalType": "bytes32",
          "name": "_vid",
          "type": "bytes32"
        },
        {
          "internalType": "address",
          "name": "_vaddr",
          "type": "address"
        }
      ],
      "name": "checkIdAddrPair",
      "outputs": [
        {
          "internalType": "bool",
          "name": "",
          "type": "bool"
        }
      ],
      "payable": false,
      "stateMutability": "view",
      "type": "function"
    },
    {
      "constant": true,
      "inputs": [],
      "name": "checkIfManager",
      "outputs": [
        {
          "internalType": "bool",
          "name": "",
          "type": "bool"
        }
      ],
      "payable": false,
      "stateMutability": "view",
      "type": "function"
    },
    {
      "constant": false,
      "inputs": [
        {
          "internalType": "bytes32",
          "name": "_vid",
          "type": "bytes32"
        },
        {
          "internalType": "address",
          "name": "_vaddr",
          "type": "address"
        }
      ],
      "name": "changeId",
      "outputs": [],
      "payable": false,
      "stateMutability": "nonpayable",
      "type": "function"
    },
    {
      "constant": true,
      "inputs": [
        {
          "internalType": "address",
          "name": "_vaddr",
          "type": "address"
        }
      ],
      "name": "checkIfChangeId",
      "outputs": [
        {
          "internalType": "bytes32",
          "name": "",
          "type": "bytes32"
        }
      ],
      "payable": false,
      "stateMutability": "view",
      "type": "function"
    }
  ],
  "bytecode": "0x608060405234801561001057600080fd5b50336000806101000a81548173ffffffffffffffffffffffffffffffffffffffff021916908373ffffffffffffffffffffffffffffffffffffffff160217905550612073806100606000396000f3fe608060405234801561001057600080fd5b506004361061012c5760003560e01c80638dd7ae6c116100ad578063bfa0fc9311610071578063bfa0fc9314610a2e578063cfb5192814610bd1578063d225bb0414610ca0578063ed98a6b114610cec578063f9d5ee7514610d385761012c565b80638dd7ae6c146105a75780639201de551461067357806392d72bf01461071a578063a08e32531461073c578063ad0843b31461078c5761012c565b80634efbb929116100f45780634efbb929146102da578063590b7529146103285780635a55c1f01461034657806365f68c89146104f7578063706ad99c1461054f5761012c565b806301fc59e1146101315780630bfb705914610177578063233b21ca146101d6578063301c193d1461023c57806341ed88a11461028a575b600080fd5b61015d6004803603602081101561014757600080fd5b8101908080359060200190929190505050610d7a565b604051808215151515815260200191505060405180910390f35b61017f610dd3565b6040518080602001828103825283818151815260200191508051906020019060200280838360005b838110156101c25780820151818401526020810190506101a7565b505050509050019250505060405180910390f35b610222600480360360408110156101ec57600080fd5b8101908080359060200190929190803573ffffffffffffffffffffffffffffffffffffffff169060200190929190505050610e63565b604051808215151515815260200191505060405180910390f35b6102886004803603604081101561025257600080fd5b8101908080359060200190929190803573ffffffffffffffffffffffffffffffffffffffff169060200190929190505050610f0f565b005b6102c0600480360360408110156102a057600080fd5b810190808035906020019092919080359060200190929190505050610ffc565b604051808215151515815260200191505060405180910390f35b610326600480360360408110156102f057600080fd5b8101908080359060200190929190803573ffffffffffffffffffffffffffffffffffffffff169060200190929190505050611073565b005b6103306110f9565b6040518082815260200191505060405180910390f35b6103726004803603602081101561035c57600080fd5b8101908080359060200190929190505050611103565b604051808060200180602001878152602001806020018060200186815260200185810385528b818151815260200191508051906020019080838360005b838110156103ca5780820151818401526020810190506103af565b50505050905090810190601f1680156103f75780820380516001836020036101000a031916815260200191505b5085810384528a818151815260200191508051906020019080838360005b83811015610430578082015181840152602081019050610415565b50505050905090810190601f16801561045d5780820380516001836020036101000a031916815260200191505b50858103835288818151815260200191508051906020019060200280838360005b8381101561049957808201518184015260208101905061047e565b50505050905001858103825287818151815260200191508051906020019060200280838360005b838110156104db5780820151818401526020810190506104c0565b505050509050019a505050505050505050505060405180910390f35b6105396004803603602081101561050d57600080fd5b81019080803573ffffffffffffffffffffffffffffffffffffffff169060200190929190505050611366565b6040518082815260200191505060405180910390f35b6105916004803603602081101561056557600080fd5b81019080803573ffffffffffffffffffffffffffffffffffffffff1690602001909291905050506113af565b6040518082815260200191505060405180910390f35b610671600480360360608110156105bd57600080fd5b8101908080359060200190929190803590602001906401000000008111156105e457600080fd5b8201836020820111156105f657600080fd5b8035906020019184602083028401116401000000008311171561061857600080fd5b919080806020026020016040519081016040528093929190818152602001838360200280828437600081840152601f19601f820116905080830192505050505050509192919290803590602001909291905050506113f8565b005b61069f6004803603602081101561068957600080fd5b81019080803590602001909291905050506114b7565b6040518080602001828103825283818151815260200191508051906020019080838360005b838110156106df5780820151818401526020810190506106c4565b50505050905090810190601f16801561070c5780820380516001836020036101000a031916815260200191505b509250505060405180910390f35b610722611614565b604051808215151515815260200191505060405180910390f35b6107726004803603604081101561075257600080fd5b81019080803590602001909291908035906020019092919050505061167c565b604051808215151515815260200191505060405180910390f35b610a18600480360360c08110156107a257600080fd5b81019080803590602001906401000000008111156107bf57600080fd5b8201836020820111156107d157600080fd5b803590602001918460018302840111640100000000831117156107f357600080fd5b91908080601f016020809104026020016040519081016040528093929190818152602001838380828437600081840152601f19601f8201169050808301925050505050505091929192908035906020019064010000000081111561085657600080fd5b82018360208201111561086857600080fd5b8035906020019184600183028401116401000000008311171561088a57600080fd5b91908080601f016020809104026020016040519081016040528093929190818152602001838380828437600081840152601f19601f82011690508083019250505050505050919291929080359060200190929190803590602001906401000000008111156108f757600080fd5b82018360208201111561090957600080fd5b8035906020019184602083028401116401000000008311171561092b57600080fd5b919080806020026020016040519081016040528093929190818152602001838360200280828437600081840152601f19601f8201169050808301925050505050505091929192908035906020019064010000000081111561098b57600080fd5b82018360208201111561099d57600080fd5b803590602001918460208302840111640100000000831117156109bf57600080fd5b919080806020026020016040519081016040528093929190818152602001838360200280828437600081840152601f19601f82011690508083019250505050505050919291929080359060200190929190505050611711565b6040518082815260200191505060405180910390f35b610a5a60048036036020811015610a4457600080fd5b8101908080359060200190929190505050611953565b6040518080602001806020018060200180602001858103855289818151815260200191508051906020019080838360005b83811015610aa6578082015181840152602081019050610a8b565b50505050905090810190601f168015610ad35780820380516001836020036101000a031916815260200191505b50858103845288818151815260200191508051906020019080838360005b83811015610b0c578082015181840152602081019050610af1565b50505050905090810190601f168015610b395780820380516001836020036101000a031916815260200191505b50858103835287818151815260200191508051906020019060200280838360005b83811015610b75578082015181840152602081019050610b5a565b50505050905001858103825286818151815260200191508051906020019060200280838360005b83811015610bb7578082015181840152602081019050610b9c565b505050509050019850505050505050505060405180910390f35b610c8a60048036036020811015610be757600080fd5b8101908080359060200190640100000000811115610c0457600080fd5b820183602082011115610c1657600080fd5b80359060200191846001830284011164010000000083111715610c3857600080fd5b91908080601f016020809104026020016040519081016040528093929190818152602001838380828437600081840152601f19601f820116905080830192505050505050509192919290505050611bb1565b6040518082815260200191505060405180910390f35b610cd660048036036040811015610cb657600080fd5b810190808035906020019092919080359060200190929190505050611bdc565b6040518082815260200191505060405180910390f35b610d2260048036036040811015610d0257600080fd5b810190808035906020019092919080359060200190929190505050611d5f565b6040518082815260200191505060405180910390f35b610d6460048036036020811015610d4e57600080fd5b8101908080359060200190929190505050611eaf565b6040518082815260200191505060405180910390f35b600080600554905060008090505b81811015610dc7578360038281548110610d9e57fe5b90600052602060002001541415610dba57600192505050610dce565b8080600101915050610d88565b5060009150505b919050565b606060006004549050606081604051908082528060200260200182016040528015610e0d5781602001602082028038833980820191505090505b50905060008090505b82811015610e5a576001600082815260200190815260200160002060000154828281518110610e4157fe5b6020026020010181815250508080600101915050610e16565b50809250505090565b600080600554905060008090505b81811015610f02578460038281548110610e8757fe5b90600052602060002001541415610ef55784600260008673ffffffffffffffffffffffffffffffffffffffff1673ffffffffffffffffffffffffffffffffffffffff168152602001908152602001600020541415610eea57600192505050610f09565b600092505050610f09565b8080600101915050610e71565b5060019150505b92915050565b6000600260008373ffffffffffffffffffffffffffffffffffffffff1673ffffffffffffffffffffffffffffffffffffffff1681526020019081526020016000205490506000600554905060008090505b81811015610fb1578260038281548110610f7657fe5b90600052602060002001541415610fa4578460038281548110610f9557fe5b90600052602060002001819055505b8080600101915050610f60565b5083600260008573ffffffffffffffffffffffffffffffffffffffff1673ffffffffffffffffffffffffffffffffffffffff1681526020019081526020016000208190555050505050565b60008060016000858152602001908152602001600020905060008160050154905060008090505b81811015611065578483600701828154811061103b57fe5b90600052602060002001541415611058576001935050505061106d565b8080600101915050611023565b506000925050505b92915050565b81600260008373ffffffffffffffffffffffffffffffffffffffff1673ffffffffffffffffffffffffffffffffffffffff1681526020019081526020016000208190555060038290806001815401808255809150509060018203906000526020600020016000909192909190915055506005600081548092919060010191905055505050565b6000600454905090565b606080600060608060008060016000898152602001908152602001600020905060008160040154905060608160405190808252806020026020018201604052801561115d5781602001602082028038833980820191505090505b50905060008090505b828110156111ac578360090160008281526020019081526020016000206001015482828151811061119357fe5b6020026020010181815250508080600101915050611166565b508260010183600201846003015483866007018760060154858054600181600116156101000203166002900480601f0160208091040260200160405190810160405280929190818152602001828054600181600116156101000203166002900480156112595780601f1061122e57610100808354040283529160200191611259565b820191906000526020600020905b81548152906001019060200180831161123c57829003601f168201915b50505050509550848054600181600116156101000203166002900480601f0160208091040260200160405190810160405280929190818152602001828054600181600116156101000203166002900480156112f55780601f106112ca576101008083540402835291602001916112f5565b820191906000526020600020905b8154815290600101906020018083116112d857829003601f168201915b505050505094508180548060200260200160405190810160405280929190818152602001828054801561134757602002820191906000526020600020905b815481526020019060010190808311611333575b5050505050915098509850985098509850985050505091939550919395565b6000600260008373ffffffffffffffffffffffffffffffffffffffff1673ffffffffffffffffffffffffffffffffffffffff168152602001908152602001600020549050919050565b6000600260008373ffffffffffffffffffffffffffffffffffffffff1673ffffffffffffffffffffffffffffffffffffffff168152602001908152602001600020549050919050565b6000600160008581526020019081526020016000209050600081600b016000848152602001908152602001600020905060008451905060008090505b8181101561148057600184600c01600088848151811061145057fe5b60200260200101518152602001908152602001600020600082825401925050819055508080600101915050611434565b5081600101869080600181540180825580915050906001820390600052602060002001600090919290919091505550505050505050565b606060008090505b60208160ff1610801561150a5750600060f81b838260ff16602081106114e157fe5b1a60f81b7effffffffffffffffffffffffffffffffffffffffffffffffffffffffffffff191614155b1561151c5780806001019150506114bf565b60608160ff166040519080825280601f01601f1916602001820160405280156115545781602001600182028038833980820191505090505b509050600091505b60208260ff161080156115a75750600060f81b848360ff166020811061157e57fe5b1a60f81b7effffffffffffffffffffffffffffffffffffffffffffffffffffffffffffff191614155b1561160a57838260ff16602081106115bb57fe5b1a60f81b818360ff16815181106115ce57fe5b60200101907effffffffffffffffffffffffffffffffffffffffffffffffffffffffffffff1916908160001a905350818060010192505061155c565b8092505050919050565b60008060009054906101000a900473ffffffffffffffffffffffffffffffffffffffff1673ffffffffffffffffffffffffffffffffffffffff163373ffffffffffffffffffffffffffffffffffffffff1614156116745760019050611679565b600090505b90565b600080600160008581526020019081526020016000209050600081600b016000858152602001908152602001600020905060008160010180549050905060008090505b8181101561170257868360010182815481106116d757fe5b906000526020600020015414156116f557600194505050505061170b565b80806001019150506116bf565b50600093505050505b92915050565b60008060009054906101000a900473ffffffffffffffffffffffffffffffffffffffff1673ffffffffffffffffffffffffffffffffffffffff163373ffffffffffffffffffffffffffffffffffffffff161461176c57600080fd5b600060046000815480929190600101919050559050606085905060608590506040518061012001604052808481526020018b81526020018a815260200189815260200160008152602001600081526020018681526020018381526020018281525060016000858152602001908152602001600020600082015181600001556020820151816001019080519060200190611806929190611eda565b506040820151816002019080519060200190611823929190611eda565b50606082015181600301556080820151816004015560a0820151816005015560c0820151816006015560e0820151816007019080519060200190611868929190611f5a565b50610100820151816008019080519060200190611886929190611f5a565b5090505060008151905060008090505b818110156118c9576118bb858483815181106118ae57fe5b6020026020010151611bdc565b508080600101915050611896565b5060008351905060008090505b81811015611909576118fb868683815181106118ee57fe5b6020026020010151611d5f565b5080806001019150506118d6565b507fe79beac2ee86ffcc8364eb577eb6b867ee9e36b53948e38dccfe28456721d43f856040518082815260200191505060405180910390a184955050505050509695505050505050565b60608060608060006001600087815260200190815260200160002090506000816004015490506060816040519080825280602002602001820160405280156119aa5781602001602082028038833980820191505090505b5090506060826040519080825280602002602001820160405280156119de5781602001602082028038833980820191505090505b50905060008090505b83811015611a5b5784600901600082815260200190815260200160002060010154838281518110611a1457fe5b60200260200101818152505084600c01600082815260200190815260200160002054828281518110611a4257fe5b60200260200101818152505080806001019150506119e7565b5083600101846002018383838054600181600116156101000203166002900480601f016020809104026020016040519081016040528092919081815260200182805460018160011615610100020316600290048015611afb5780601f10611ad057610100808354040283529160200191611afb565b820191906000526020600020905b815481529060010190602001808311611ade57829003601f168201915b50505050509350828054600181600116156101000203166002900480601f016020809104026020016040519081016040528092919081815260200182805460018160011615610100020316600290048015611b975780601f10611b6c57610100808354040283529160200191611b97565b820191906000526020600020905b815481529060010190602001808311611b7a57829003601f168201915b505050505092509750975097509750505050509193509193565b60006060829050600081511415611bce576000801b915050611bd7565b60208301519150505b919050565b60008060009054906101000a900473ffffffffffffffffffffffffffffffffffffffff1673ffffffffffffffffffffffffffffffffffffffff163373ffffffffffffffffffffffffffffffffffffffff1614611c3757600080fd5b600082905060006001600086815260200190815260200160002090506000816004016000815480929190600101919050559050604051806060016040528082815260200184815260200160011515815250826009016000838152602001908152602001600020600082015181600001556020820151816001015560408201518160020160006101000a81548160ff0219169083151502179055509050508082600a01600085815260200190815260200160002081905550816008018390806001815401808255809150509060018203906000526020600020016000909192909190915055507fec542c373a064661ffef02d633752debf28f3e6c9f253680822d9ccf8b47aec6816040518082815260200191505060405180910390a180935050505092915050565b60008060009054906101000a900473ffffffffffffffffffffffffffffffffffffffff1673ffffffffffffffffffffffffffffffffffffffff163373ffffffffffffffffffffffffffffffffffffffff1614611dba57600080fd5b60006001600085815260200190815260200160002090506000816005016000815480929190600101919050559050606060405180604001604052808681526020018281525083600b016000878152602001908152602001600020600082015181600001556020820151816001019080519060200190611e3a929190611fa7565b50905050826007018590806001815401808255809150509060018203906000526020600020016000909192909190915055507f68b3ea8039ba0bcaf43bd4caaa888dc8d81b77f70304ad5f111a4b646a4e2291826040518082815260200191505060405180910390a181935050505092915050565b6000806001600084815260200190815260200160002090506000816006015490508092505050919050565b828054600181600116156101000203166002900490600052602060002090601f016020900481019282601f10611f1b57805160ff1916838001178555611f49565b82800160010185558215611f49579182015b82811115611f48578251825591602001919060010190611f2d565b5b509050611f569190611ff4565b5090565b828054828255906000526020600020908101928215611f96579160200282015b82811115611f95578251825591602001919060010190611f7a565b5b509050611fa39190612019565b5090565b828054828255906000526020600020908101928215611fe3579160200282015b82811115611fe2578251825591602001919060010190611fc7565b5b509050611ff09190611ff4565b5090565b61201691905b80821115612012576000816000905550600101611ffa565b5090565b90565b61203b91905b8082111561203757600081600090555060010161201f565b5090565b9056fea265627a7a72315820f3367314ed909c290dd9d4e726d7713cd27dfef747b3f16b12033c614ece87ac64736f6c63430005100032",
  "source": "pragma solidity >=0.4.21 <0.6.0;\r\n\r\ncontract Voting{\r\n    //events\r\n    event AddedVote(uint voteID);\r\n    event AddedCandidate(uint candidateID);\r\n    event AddedVoter(uint voterID);\r\n    event Voted(uint voterID);\r\n\r\n    //constructor & modifier\r\n    address owner;\r\n    constructor() public{\r\n        owner=msg.sender;\r\n    }\r\n\r\n    modifier onlyOwner {\r\n        require(msg.sender == owner);\r\n        _;\r\n    }\r\n\r\n    //structs\r\n    struct Voter{\r\n        bytes32 vid;\r\n        //address vaddr;\r\n        uint[] allowed_votes;\r\n    }\r\n\r\n    struct Candidate{\r\n        uint cid;\r\n        bytes32 name;\r\n        bool doesExist; \r\n    }\r\n\r\n    struct Vote{\r\n        uint vote_id;\r\n        string topic;\r\n        string content;\r\n        uint dueTime;\r\n        uint num_candidates;\r\n        uint num_voters;\r\n        uint upperLimit;\r\n        bytes32[] allowed_voters;\r\n        bytes32[] participating_candidates;\r\n        mapping (uint => Candidate) candidates;\r\n        mapping (bytes32 => uint) cname_to_id;\r\n        mapping (bytes32 => Voter) voters;\r\n        mapping (uint => uint) ballot;\r\n    }\r\n\r\n    //declaration\r\n    //Vote[] votes;\r\n    mapping (uint => Vote) votes;\r\n    mapping (address => bytes32) all_voters_map;\r\n    bytes32[] all_voters;\r\n    uint num_votes;\r\n    uint num_all_voters;\r\n    \r\n    \r\n\r\n    //type transfer functions\r\n    function stringToBytes32(string memory source) public pure returns (bytes32 result) {\r\n        bytes memory tempEmptyStringTest = bytes(source);\r\n        if (tempEmptyStringTest.length == 0) {\r\n            return 0x0;\r\n        }\r\n        assembly {\r\n            result := mload(add(source, 32))\r\n        }\r\n    }\r\n\r\n    function bytes32ToString(bytes32 _bytes32) public pure returns (string memory) {\r\n        uint8 i = 0;\r\n        while(i < 32 && _bytes32[i] != 0) {\r\n            i++;\r\n        }\r\n        bytes memory bytesArray = new bytes(i);\r\n        for (i = 0; i < 32 && _bytes32[i] != 0; i++) {\r\n            bytesArray[i] = _bytes32[i];\r\n        }\r\n        return string(bytesArray);\r\n    }\r\n\r\n    //add functions\r\n    function addCandidate(uint vote_id, bytes32 name) onlyOwner public returns(uint) {\r\n        bytes32 nb = name;\r\n        Vote storage cur_vote = votes[vote_id];\r\n        // candidateID is the return variable\r\n        uint candidateID = cur_vote.num_candidates++;\r\n        // Create new Candidate Struct with name and saves it to storage.\r\n        cur_vote.candidates[candidateID] = Candidate(candidateID,nb,true);\r\n        cur_vote.cname_to_id[nb] = candidateID;\r\n        cur_vote.participating_candidates.push(nb);\r\n        emit AddedCandidate(candidateID);\r\n        return (candidateID);\r\n    }\r\n\r\n    function addVote(string memory topic, string memory content,uint dueTime,bytes32[] memory ini_vot,bytes32[] memory ini_cand, uint upperLimit) onlyOwner public returns(uint){\r\n        uint voteID = num_votes++;\r\n        //uint[] memory vot;\r\n        bytes32[] memory vot = ini_vot;    \r\n        bytes32[] memory cand = ini_cand;\r\n        /*uint l = ini_cand.length;\r\n        for (uint i = 0; i < l; i++) {\r\n            cand[i] = ini_cand[i];\r\n        }*/\r\n        \r\n        votes[voteID] = Vote(voteID,topic,content,dueTime,0,0,upperLimit,vot,cand);\r\n        uint len = cand.length;\r\n        for (uint i = 0; i < len; i++) {\r\n            //string memory _cname = bytes32ToString(cand[i]);\r\n            //addCandidate(voteID,_cname);\r\n            addCandidate(voteID,cand[i]);\r\n        }\r\n        uint len2 = vot.length;\r\n        for (uint i = 0; i < len2; i++) {\r\n            //string memory _cname = bytes32ToString(cand[i]);\r\n            //addCandidate(voteID,_cname);\r\n            addVoter(voteID,vot[i]);\r\n        }\r\n        emit AddedVote(voteID);\r\n        return (voteID); \r\n    }\r\n\r\n    function addVoter(uint _vote_id, bytes32 _vid) onlyOwner public returns(uint){\r\n        Vote storage cur_vote = votes[_vote_id];\r\n        uint voterID = cur_vote.num_voters++;\r\n        uint[] memory allv;\r\n        cur_vote.voters[_vid] = Voter(_vid,allv);\r\n        cur_vote.allowed_voters.push(_vid);    \r\n        //cur_vote.voters[_vid] \r\n        \r\n        emit AddedVoter(voterID);\r\n        return(voterID);    \r\n    }\r\n\r\n    function addNewVoter(bytes32 _vid, address _vaddr) public{\r\n        all_voters_map[_vaddr] = _vid;\r\n        all_voters.push(_vid);\r\n        num_all_voters++;\r\n    }\r\n\r\n    //vote function\r\n    function vote(uint _vote_id,uint[] memory _chosen, bytes32 _vid) public{\r\n        Vote storage cur_vote = votes[_vote_id];\r\n        Voter storage cur_voter = cur_vote.voters[_vid];\r\n        uint len = _chosen.length;\r\n        for (uint i = 0; i < len; i++) {\r\n            cur_vote.ballot[_chosen[i]]+=1;\r\n        }\r\n        cur_voter.allowed_votes.push(_vote_id);\r\n        \r\n    }\r\n\r\n    //get methods\r\n    function getVote(uint _vote_vid) view public returns(string memory, string memory, uint,bytes32[] memory,bytes32[] memory,uint){\r\n        Vote storage cur_vote = votes[_vote_vid];\r\n        uint nc = cur_vote.num_candidates;\r\n        bytes32[] memory cb = new bytes32[](nc);\r\n        \r\n        for (uint i = 0; i < nc; i++) {\r\n            cb[i]=cur_vote.candidates[i].name;\r\n        }\r\n\r\n        return(cur_vote.topic,cur_vote.content,cur_vote.dueTime,cb,cur_vote.allowed_voters ,cur_vote.upperLimit);\r\n    }\r\n\r\n    function getVotingList() view public returns(uint[] memory){\r\n        uint numVotes = num_votes;\r\n        uint[] memory cur_vid = new uint[](numVotes);\r\n        for (uint i = 0; i < numVotes; i++) {\r\n            //Vote storage cur_vote = votes[i];\r\n            //uint id = cur_vote.vote_id;\r\n            cur_vid[i]=votes[i].vote_id;\r\n        }\r\n        return(cur_vid);\r\n    }\r\n\r\n    function getVotingNum() view public returns(uint){\r\n        return(num_votes);\r\n    }\r\n\r\n    function getVoteResult(uint _vote_vid) view public returns(string memory,string memory,bytes32[] memory,uint[] memory){\r\n        Vote storage cur_vote = votes[_vote_vid];\r\n        uint nc = cur_vote.num_candidates;\r\n        bytes32[] memory cb = new bytes32[](nc);\r\n        uint[] memory bal = new uint[](nc);\r\n        for (uint i = 0; i < nc; i++) {\r\n            cb[i]=cur_vote.candidates[i].name;\r\n            bal[i] = cur_vote.ballot[i];\r\n        }\r\n        \r\n        return(cur_vote.topic,cur_vote.content,cb,bal);\r\n        \r\n    }\r\n\r\n    function getBallot(uint _vote_id) view public returns(uint){\r\n        Vote storage cur_vote = votes[_vote_id];\r\n        uint nb = cur_vote.upperLimit;\r\n        return(nb);        \r\n    }\r\n\r\n    function getId(address _vaddr) view public returns(bytes32){\r\n        return(all_voters_map[_vaddr]);\r\n    }\r\n\r\n    //qualification    \r\n    function ifHeHasRight(uint _vote_id, bytes32 _vid) view public returns(bool){\r\n        Vote storage cur_vote = votes[_vote_id];\r\n        uint n = cur_vote.num_voters;\r\n        //bool rv = false;\r\n        for (uint i = 0; i < n; i++) {\r\n            if (cur_vote.allowed_voters[i] == _vid){\r\n                return true;\r\n            }\r\n        }\r\n        return false;\r\n\r\n    }\r\n\r\n    function checkVoted(uint _vote_id,bytes32 _vid) view public returns(bool){\r\n        Vote storage cur_vote = votes[_vote_id];\r\n        Voter storage cur_voter = cur_vote.voters[_vid];\r\n        uint len = cur_voter.allowed_votes.length;\r\n        for (uint i = 0; i < len; i++) {\r\n            if (cur_voter.allowed_votes[i] == _vote_id){\r\n                return true;\r\n            }\r\n        }\r\n        return false;\r\n\r\n    }\r\n\r\n    function checkId(bytes32 _vid) view public returns(bool){\r\n        uint len = num_all_voters;\r\n        for (uint i = 0; i < len; i++) {\r\n            if (all_voters[i] == _vid){\r\n                return true;\r\n            }\r\n        }\r\n        return false;        \r\n    }\r\n\r\n    function checkIdAddrPair(bytes32 _vid, address _vaddr) view public returns(bool){\r\n        uint len = num_all_voters;\r\n        for (uint i = 0; i < len; i++) {\r\n            if (all_voters[i] == _vid){\r\n                if(all_voters_map[_vaddr] == _vid){\r\n                    return true;\r\n                }\r\n                else{\r\n                    return false;                   \r\n                }\r\n            }\r\n        }\r\n        return true;         \r\n    }\r\n\r\n    function checkIfManager() view public returns(bool){\r\n        if (msg.sender == owner){\r\n            return true;\r\n        }\r\n        return false;\r\n    }\r\n\r\n    //change ID\r\n    function changeId(bytes32 _vid, address _vaddr) public {\r\n        bytes32 old_vid = all_voters_map[_vaddr];\r\n        uint len = num_all_voters;\r\n        for (uint i = 0; i < len; i++) {\r\n            if (all_voters[i] == old_vid){\r\n                all_voters[i] = _vid;\r\n            }\r\n        }       \r\n        all_voters_map[_vaddr] = _vid;   \r\n    }\r\n\r\n    function checkIfChangeId(address _vaddr) view public returns(bytes32){\r\n        return(all_voters_map[_vaddr]);\r\n    }\r\n\r\n\r\n    \r\n}",
  "sourcePath": "D:/NTUEE/third_grade//final/voting/contracts/Voting.sol",
  "compiler": {
    "name": "solc",
    "version": "0.5.16+commit.9c3226ce.Emscripten.clang"
  },
  "schemaVersion": "3.4.1",
  "updatedAt": "2021-06-27T16:30:19.171Z",
  "networkType": "ethereum",
  "devdoc": {
    "methods": {}
  },
  "userdoc": {
    "methods": {}
  }
}