{
  "contractName": "Voting",
  "abi": [
    {
      "inputs": [],
      "payable": false,
      "stateMutability": "nonpayable",
      "type": "constructor"
    },
    {
      "anonymous": false,
      "inputs": [
        {
          "indexed": false,
          "internalType": "uint256",
          "name": "candidateID",
          "type": "uint256"
        }
      ],
      "name": "AddedCandidate",
      "type": "event"
    },
    {
      "anonymous": false,
      "inputs": [
        {
          "indexed": false,
          "internalType": "uint256",
          "name": "voteID",
          "type": "uint256"
        }
      ],
      "name": "AddedVote",
      "type": "event"
    },
    {
      "anonymous": false,
      "inputs": [
        {
          "indexed": false,
          "internalType": "uint256",
          "name": "voterID",
          "type": "uint256"
        }
      ],
      "name": "Voted",
      "type": "event"
    },
    {
      "constant": true,
      "inputs": [
        {
          "internalType": "string",
          "name": "source",
          "type": "string"
        }
      ],
      "name": "stringToBytes32",
      "outputs": [
        {
          "internalType": "bytes32",
          "name": "result",
          "type": "bytes32"
        }
      ],
      "payable": false,
      "stateMutability": "pure",
      "type": "function"
    },
    {
      "constant": true,
      "inputs": [
        {
          "internalType": "bytes32",
          "name": "_bytes32",
          "type": "bytes32"
        }
      ],
      "name": "bytes32ToString",
      "outputs": [
        {
          "internalType": "string",
          "name": "",
          "type": "string"
        }
      ],
      "payable": false,
      "stateMutability": "pure",
      "type": "function"
    },
    {
      "constant": false,
      "inputs": [
        {
          "internalType": "uint256",
          "name": "vote_id",
          "type": "uint256"
        },
        {
          "internalType": "string",
          "name": "name",
          "type": "string"
        }
      ],
      "name": "addCandidate",
      "outputs": [
        {
          "internalType": "uint256",
          "name": "",
          "type": "uint256"
        }
      ],
      "payable": false,
      "stateMutability": "nonpayable",
      "type": "function"
    },
    {
      "constant": false,
      "inputs": [
        {
          "internalType": "string",
          "name": "topic",
          "type": "string"
        },
        {
          "internalType": "string",
          "name": "content",
          "type": "string"
        },
        {
          "internalType": "string",
          "name": "dueTime",
          "type": "string"
        },
        {
          "internalType": "bytes32[]",
          "name": "ini_cand",
          "type": "bytes32[]"
        },
        {
          "internalType": "uint256",
          "name": "upperLimit",
          "type": "uint256"
        }
      ],
      "name": "addVote",
      "outputs": [
        {
          "internalType": "uint256",
          "name": "",
          "type": "uint256"
        }
      ],
      "payable": false,
      "stateMutability": "nonpayable",
      "type": "function"
    },
    {
      "constant": false,
      "inputs": [
        {
          "internalType": "uint256",
          "name": "_vote_id",
          "type": "uint256"
        },
        {
          "internalType": "uint256",
          "name": "_vid",
          "type": "uint256"
        }
      ],
      "name": "addVoter",
      "outputs": [
        {
          "internalType": "uint256",
          "name": "",
          "type": "uint256"
        }
      ],
      "payable": false,
      "stateMutability": "nonpayable",
      "type": "function"
    },
    {
      "constant": false,
      "inputs": [
        {
          "internalType": "uint256",
          "name": "_vote_id",
          "type": "uint256"
        },
        {
          "internalType": "uint256[]",
          "name": "_chosen",
          "type": "uint256[]"
        }
      ],
      "name": "vote",
      "outputs": [],
      "payable": false,
      "stateMutability": "nonpayable",
      "type": "function"
    },
    {
      "constant": true,
      "inputs": [
        {
          "internalType": "uint256",
          "name": "_vote_vid",
          "type": "uint256"
        }
      ],
      "name": "getVote",
      "outputs": [
        {
          "internalType": "string",
          "name": "",
          "type": "string"
        },
        {
          "internalType": "string",
          "name": "",
          "type": "string"
        },
        {
          "internalType": "string",
          "name": "",
          "type": "string"
        },
        {
          "internalType": "bytes32[]",
          "name": "",
          "type": "bytes32[]"
        },
        {
          "internalType": "uint256",
          "name": "",
          "type": "uint256"
        }
      ],
      "payable": false,
      "stateMutability": "view",
      "type": "function"
    },
    {
      "constant": true,
      "inputs": [],
      "name": "getVotingList",
      "outputs": [
        {
          "internalType": "uint256[]",
          "name": "",
          "type": "uint256[]"
        }
      ],
      "payable": false,
      "stateMutability": "view",
      "type": "function"
    },
    {
      "constant": true,
      "inputs": [
        {
          "internalType": "address",
          "name": "_addr",
          "type": "address"
        },
        {
          "internalType": "uint256",
          "name": "_vote_id",
          "type": "uint256"
        }
      ],
      "name": "ifHeHasRight",
      "outputs": [
        {
          "internalType": "bool",
          "name": "",
          "type": "bool"
        }
      ],
      "payable": false,
      "stateMutability": "view",
      "type": "function"
    }
  ],
  "bytecode": "0x608060405234801561001057600080fd5b50336000806101000a81548173ffffffffffffffffffffffffffffffffffffffff021916908373ffffffffffffffffffffffffffffffffffffffff1602179055506114b5806100606000396000f3fe608060405234801561001057600080fd5b50600436106100935760003560e01c80636d220346116100665780636d220346146103ea5780637055d368146104505780639201de5514610512578063cfb51928146105b9578063de442e801461068857610093565b80630a120bb0146100985780630bfb7059146100e45780631750a3d0146101435780635a55c1f01461021c575b600080fd5b6100ce600480360360408110156100ae57600080fd5b810190808035906020019092919080359060200190929190505050610923565b6040518082815260200191505060405180910390f35b6100ec6109e4565b6040518080602001828103825283818151815260200191508051906020019060200280838360005b8381101561012f578082015181840152602081019050610114565b505050509050019250505060405180910390f35b6102066004803603604081101561015957600080fd5b81019080803590602001909291908035906020019064010000000081111561018057600080fd5b82018360208201111561019257600080fd5b803590602001918460018302840111640100000000831117156101b457600080fd5b91908080601f016020809104026020016040519081016040528093929190818152602001838380828437600081840152601f19601f820116905080830192505050505050509192919290505050610a42565b6040518082815260200191505060405180910390f35b6102486004803603602081101561023257600080fd5b8101908080359060200190929190505050610bcd565b604051808060200180602001806020018060200186815260200185810385528a818151815260200191508051906020019080838360005b8381101561029a57808201518184015260208101905061027f565b50505050905090810190601f1680156102c75780820380516001836020036101000a031916815260200191505b50858103845289818151815260200191508051906020019080838360005b838110156103005780820151818401526020810190506102e5565b50505050905090810190601f16801561032d5780820380516001836020036101000a031916815260200191505b50858103835288818151815260200191508051906020019080838360005b8381101561036657808201518184015260208101905061034b565b50505050905090810190601f1680156103935780820380516001836020036101000a031916815260200191505b50858103825287818151815260200191508051906020019060200280838360005b838110156103cf5780820151818401526020810190506103b4565b50505050905001995050505050505050505060405180910390f35b6104366004803603604081101561040057600080fd5b81019080803573ffffffffffffffffffffffffffffffffffffffff16906020019092919080359060200190929190505050610e3f565b604051808215151515815260200191505060405180910390f35b6105106004803603604081101561046657600080fd5b81019080803590602001909291908035906020019064010000000081111561048d57600080fd5b82018360208201111561049f57600080fd5b803590602001918460208302840111640100000000831117156104c157600080fd5b919080806020026020016040519081016040528093929190818152602001838360200280828437600081840152601f19601f820116905080830192505050505050509192919290505050610f01565b005b61053e6004803603602081101561052857600080fd5b8101908080359060200190929190505050610f77565b6040518080602001828103825283818151815260200191508051906020019080838360005b8381101561057e578082015181840152602081019050610563565b50505050905090810190601f1680156105ab5780820380516001836020036101000a031916815260200191505b509250505060405180910390f35b610672600480360360208110156105cf57600080fd5b81019080803590602001906401000000008111156105ec57600080fd5b8201836020820111156105fe57600080fd5b8035906020019184600183028401116401000000008311171561062057600080fd5b91908080601f016020809104026020016040519081016040528093929190818152602001838380828437600081840152601f19601f8201169050808301925050505050505091929192905050506110d4565b6040518082815260200191505060405180910390f35b61090d600480360360a081101561069e57600080fd5b81019080803590602001906401000000008111156106bb57600080fd5b8201836020820111156106cd57600080fd5b803590602001918460018302840111640100000000831117156106ef57600080fd5b91908080601f016020809104026020016040519081016040528093929190818152602001838380828437600081840152601f19601f8201169050808301925050505050505091929192908035906020019064010000000081111561075257600080fd5b82018360208201111561076457600080fd5b8035906020019184600183028401116401000000008311171561078657600080fd5b91908080601f016020809104026020016040519081016040528093929190818152602001838380828437600081840152601f19601f820116905080830192505050505050509192919290803590602001906401000000008111156107e957600080fd5b8201836020820111156107fb57600080fd5b8035906020019184600183028401116401000000008311171561081d57600080fd5b91908080601f016020809104026020016040519081016040528093929190818152602001838380828437600081840152601f19601f8201169050808301925050505050505091929192908035906020019064010000000081111561088057600080fd5b82018360208201111561089257600080fd5b803590602001918460208302840111640100000000831117156108b457600080fd5b919080806020026020016040519081016040528093929190818152602001838360200280828437600081840152601f19601f820116905080830192505050505050509192919290803590602001909291905050506110ff565b6040518082815260200191505060405180910390f35b60008060009054906101000a900473ffffffffffffffffffffffffffffffffffffffff1673ffffffffffffffffffffffffffffffffffffffff163373ffffffffffffffffffffffffffffffffffffffff161461097e57600080fd5b60006001600085815260200190815260200160002090508060070183908060018154018082558091505090600182039060005260206000200160009091929091909150555060018160050160008282540192505081905550806005015491505092915050565b606060006002549050606060008090505b82811015610a39576001600082815260200190815260200160002060000154828281518110610a2057fe5b60200260200101818152505080806001019150506109f5565b50809250505090565b60008060009054906101000a900473ffffffffffffffffffffffffffffffffffffffff1673ffffffffffffffffffffffffffffffffffffffff163373ffffffffffffffffffffffffffffffffffffffff1614610a9d57600080fd5b6000610aa8836110d4565b905060006001600086815260200190815260200160002090506000816004016000815480929190600101919050559050604051806060016040528082815260200184815260200160011515815250826009016000838152602001908152602001600020600082015181600001556020820151816001015560408201518160020160006101000a81548160ff0219169083151502179055509050508082600a01600085815260200190815260200160002081905550816008018390806001815401808255809150509060018203906000526020600020016000909192909190915055507fec542c373a064661ffef02d633752debf28f3e6c9f253680822d9ccf8b47aec6816040518082815260200191505060405180910390a180935050505092915050565b606080606080600080600160008881526020019081526020016000209050606060008260040154905060008090505b81811015610c425783600901600082815260200190815260200160002060010154838281518110610c2957fe5b6020026020010181815250508080600101915050610bfc565b50826001018360020184600301848660060154848054600181600116156101000203166002900480601f016020809104026020016040519081016040528092919081815260200182805460018160011615610100020316600290048015610cea5780601f10610cbf57610100808354040283529160200191610cea565b820191906000526020600020905b815481529060010190602001808311610ccd57829003601f168201915b50505050509450838054600181600116156101000203166002900480601f016020809104026020016040519081016040528092919081815260200182805460018160011615610100020316600290048015610d865780601f10610d5b57610100808354040283529160200191610d86565b820191906000526020600020905b815481529060010190602001808311610d6957829003601f168201915b50505050509350828054600181600116156101000203166002900480601f016020809104026020016040519081016040528092919081815260200182805460018160011615610100020316600290048015610e225780601f10610df757610100808354040283529160200191610e22565b820191906000526020600020905b815481529060010190602001808311610e0557829003601f168201915b505050505092509750975097509750975050505091939590929450565b60008060016000848152602001908152602001600020905060008160050154905060008090505b81811015610ef3578573ffffffffffffffffffffffffffffffffffffffff1683600b01600083815260200190815260200160002060010160009054906101000a900473ffffffffffffffffffffffffffffffffffffffff1673ffffffffffffffffffffffffffffffffffffffff161415610ee65760019350505050610efb565b8080600101915050610e66565b506000925050505b92915050565b600060016000848152602001908152602001600020905060008251905060008090505b81811015610f7057600183600c016000868481518110610f4057fe5b60200260200101518152602001908152602001600020600082825401925050819055508080600101915050610f24565b5050505050565b606060008090505b60208160ff16108015610fca5750600060f81b838260ff1660208110610fa157fe5b1a60f81b7effffffffffffffffffffffffffffffffffffffffffffffffffffffffffffff191614155b15610fdc578080600101915050610f7f565b60608160ff166040519080825280601f01601f1916602001820160405280156110145781602001600182028038833980820191505090505b509050600091505b60208260ff161080156110675750600060f81b848360ff166020811061103e57fe5b1a60f81b7effffffffffffffffffffffffffffffffffffffffffffffffffffffffffffff191614155b156110ca57838260ff166020811061107b57fe5b1a60f81b818360ff168151811061108e57fe5b60200101907effffffffffffffffffffffffffffffffffffffffffffffffffffffffffffff1916908160001a905350818060010192505061101c565b8092505050919050565b600060608290506000815114156110f1576000801b9150506110fa565b60208301519150505b919050565b60008060009054906101000a900473ffffffffffffffffffffffffffffffffffffffff1673ffffffffffffffffffffffffffffffffffffffff163373ffffffffffffffffffffffffffffffffffffffff161461115a57600080fd5b6000600260008154809291906001019190505590506060808590506040518061012001604052808481526020018a8152602001898152602001888152602001600081526020016000815260200186815260200183815260200182815250600160008581526020019081526020016000206000820151816000015560208201518160010190805190602001906111f092919061131c565b50604082015181600201908051906020019061120d92919061131c565b50606082015181600301908051906020019061122a92919061131c565b506080820151816004015560a0820151816005015560c0820151816006015560e082015181600701908051906020019061126592919061139c565b506101008201518160080190805190602001906112839291906113e9565b5090505060008151905060008090505b818110156112d45760606112b98483815181106112ac57fe5b6020026020010151610f77565b90506112c58682610a42565b50508080600101915050611293565b507fe79beac2ee86ffcc8364eb577eb6b867ee9e36b53948e38dccfe28456721d43f846040518082815260200191505060405180910390a18394505050505095945050505050565b828054600181600116156101000203166002900490600052602060002090601f016020900481019282601f1061135d57805160ff191683800117855561138b565b8280016001018555821561138b579182015b8281111561138a57825182559160200191906001019061136f565b5b5090506113989190611436565b5090565b8280548282559060005260206000209081019282156113d8579160200282015b828111156113d75782518255916020019190600101906113bc565b5b5090506113e59190611436565b5090565b828054828255906000526020600020908101928215611425579160200282015b82811115611424578251825591602001919060010190611409565b5b509050611432919061145b565b5090565b61145891905b8082111561145457600081600090555060010161143c565b5090565b90565b61147d91905b80821115611479576000816000905550600101611461565b5090565b9056fea265627a7a7231582026bfd9980714c77223f86d51f93532556b04387025f580a32ad9df6572749c8a64736f6c63430005100032",
  "source": "pragma solidity >=0.4.21 <0.6.0;\r\n\r\ncontract Voting{\r\n    //events\r\n    event AddedVote(uint voteID);\r\n    event AddedCandidate(uint candidateID);\r\n    event Voted(uint voterID);\r\n\r\n    //constructor & modifier\r\n    address owner;\r\n    constructor() public{\r\n        owner=msg.sender;\r\n    }\r\n\r\n    modifier onlyOwner {\r\n        require(msg.sender == owner);\r\n        _;\r\n    }\r\n\r\n    //structs\r\n    struct Voter{\r\n        uint vid;\r\n        address vaddr;\r\n        uint[] allowed_votes;\r\n    }\r\n\r\n    struct Candidate{\r\n        uint cid;\r\n        bytes32 name;\r\n        bool doesExist; \r\n    }\r\n\r\n    struct Vote{\r\n        uint vote_id;\r\n        string topic;\r\n        string content;\r\n        string dueTime;\r\n        uint num_candidates;\r\n        uint num_voters;\r\n        uint upperLimit;\r\n        uint[] allowed_voters;\r\n        bytes32[] participating_candidates;\r\n        mapping (uint => Candidate) candidates;\r\n        mapping (bytes32 => uint) cname_to_id;\r\n        mapping (uint => Voter) voters;\r\n        mapping (uint => uint) ballot;\r\n    }\r\n\r\n    //declaration\r\n    //Vote[] votes;\r\n    mapping (uint => Vote) votes;\r\n    uint num_votes;\r\n\r\n    //type transfer functions\r\n    function stringToBytes32(string memory source) public pure returns (bytes32 result) {\r\n        bytes memory tempEmptyStringTest = bytes(source);\r\n        if (tempEmptyStringTest.length == 0) {\r\n            return 0x0;\r\n        }\r\n        assembly {\r\n            result := mload(add(source, 32))\r\n        }\r\n    }\r\n\r\n    function bytes32ToString(bytes32 _bytes32) public pure returns (string memory) {\r\n        uint8 i = 0;\r\n        while(i < 32 && _bytes32[i] != 0) {\r\n            i++;\r\n        }\r\n        bytes memory bytesArray = new bytes(i);\r\n        for (i = 0; i < 32 && _bytes32[i] != 0; i++) {\r\n            bytesArray[i] = _bytes32[i];\r\n        }\r\n        return string(bytesArray);\r\n    }\r\n\r\n    //add functions\r\n    function addCandidate(uint vote_id, string memory name) onlyOwner public returns(uint) {\r\n        bytes32 nb = stringToBytes32(name);\r\n        Vote storage cur_vote = votes[vote_id];\r\n        // candidateID is the return variable\r\n        uint candidateID = cur_vote.num_candidates++;\r\n        // Create new Candidate Struct with name and saves it to storage.\r\n        cur_vote.candidates[candidateID] = Candidate(candidateID,nb,true);\r\n        cur_vote.cname_to_id[nb] = candidateID;\r\n        cur_vote.participating_candidates.push(nb);\r\n        emit AddedCandidate(candidateID);\r\n        return (candidateID);\r\n    }\r\n\r\n    function addVote(string memory topic, string memory content,string memory dueTime,bytes32[] memory ini_cand, uint upperLimit) onlyOwner public returns(uint){\r\n        uint voteID = num_votes++;\r\n        uint[] memory vot;\r\n        bytes32[] memory cand = ini_cand;\r\n        votes[voteID] = Vote(voteID,topic,content,dueTime,0,0,upperLimit,vot,cand);\r\n        uint len = cand.length;\r\n        for (uint i = 0; i < len; i++) {\r\n            string memory _cname = bytes32ToString(cand[i]);\r\n            addCandidate(voteID,_cname);\r\n        }\r\n        emit AddedVote(voteID);\r\n        return (voteID); \r\n    }\r\n\r\n    function addVoter(uint _vote_id, uint _vid) onlyOwner public returns(uint){\r\n        Vote storage cur_vote = votes[_vote_id];\r\n        cur_vote.allowed_voters.push(_vid);\r\n        cur_vote.num_voters +=1;\r\n        return(cur_vote.num_voters);    \r\n    }\r\n\r\n    //vote function\r\n    function vote(uint _vote_id,uint[] memory _chosen) public{\r\n        Vote storage cur_vote = votes[_vote_id];\r\n        uint len = _chosen.length;\r\n        for (uint i = 0; i < len; i++) {\r\n            cur_vote.ballot[_chosen[i]]+=1;\r\n        }\r\n    }\r\n\r\n    //get methods\r\n    function getVote(uint _vote_vid) view public returns(string memory, string memory, string memory,bytes32[] memory,uint){\r\n        Vote storage cur_vote = votes[_vote_vid];\r\n        bytes32[] memory cb;\r\n        uint nc = cur_vote.num_candidates;\r\n        for (uint i = 0; i < nc; i++) {\r\n            cb[i]=cur_vote.candidates[i].name;\r\n        }\r\n\r\n        return(cur_vote.topic,cur_vote.content,cur_vote.dueTime,cb,cur_vote.upperLimit);\r\n    }\r\n\r\n    function getVotingList() view public returns(uint[] memory){\r\n        uint numVotes = num_votes;\r\n        uint[] memory cur_vid;\r\n        for (uint i = 0; i < numVotes; i++) {\r\n            cur_vid[i]=votes[i].vote_id;\r\n        }\r\n        return(cur_vid);\r\n    }\r\n\r\n    function ifHeHasRight(address _addr, uint _vote_id) view public returns(bool){\r\n        Vote storage cur_vote = votes[_vote_id];\r\n        uint n = cur_vote.num_voters;\r\n        //bool rv = false;\r\n        for (uint i = 0; i < n; i++) {\r\n            if (cur_vote.voters[i].vaddr == _addr){\r\n                return true;\r\n            }\r\n        }\r\n        return false;\r\n\r\n    }\r\n\r\n\r\n    \r\n\r\n    \r\n\r\n    \r\n}",
  "sourcePath": "D:/NTUEE/third_grade/網多實驗/final/voting/contracts/Voting.sol",
  "compiler": {
    "name": "solc",
    "version": "0.5.16+commit.9c3226ce.Emscripten.clang"
  },
  "schemaVersion": "3.4.1",
  "updatedAt": "2021-06-12T05:44:24.381Z",
  "networkType": "ethereum",
  "devdoc": {
    "methods": {}
  },
  "userdoc": {
    "methods": {}
  }
}